{
    "_format": "hh-sol-artifact-1",
    "contractName": "BeliefMarketFHE",
    "sourceName": "contracts/BeliefMarketFHE.sol",
    "abi": [
        {
            "inputs": [],
            "stateMutability": "nonpayable",
            "type": "constructor"
        },
        {
            "inputs": [],
            "name": "HandlesAlreadySavedForRequestID",
            "type": "error"
        },
        {
            "anonymous": false,
            "inputs": [
                {
                    "indexed": false,
                    "internalType": "string",
                    "name": "betId",
                    "type": "string"
                },
                {
                    "indexed": false,
                    "internalType": "address",
                    "name": "creator",
                    "type": "address"
                },
                {
                    "indexed": false,
                    "internalType": "uint256",
                    "name": "stakeAmount",
                    "type": "uint256"
                },
                {
                    "indexed": false,
                    "internalType": "uint256",
                    "name": "voteStake",
                    "type": "uint256"
                },
                {
                    "indexed": false,
                    "internalType": "uint256",
                    "name": "expiryTime",
                    "type": "uint256"
                }
            ],
            "name": "BetCreated",
            "type": "event"
        },
        {
            "anonymous": false,
            "inputs": [
                {
                    "indexed": false,
                    "internalType": "string",
                    "name": "betId",
                    "type": "string"
                },
                {
                    "indexed": false,
                    "internalType": "bool",
                    "name": "yesWon",
                    "type": "bool"
                },
                {
                    "indexed": false,
                    "internalType": "uint64",
                    "name": "revealedYes",
                    "type": "uint64"
                },
                {
                    "indexed": false,
                    "internalType": "uint64",
                    "name": "revealedNo",
                    "type": "uint64"
                },
                {
                    "indexed": false,
                    "internalType": "uint256",
                    "name": "totalPrize",
                    "type": "uint256"
                }
            ],
            "name": "BetResolved",
            "type": "event"
        },
        {
            "anonymous": false,
            "inputs": [
                {
                    "indexed": false,
                    "internalType": "string",
                    "name": "betId",
                    "type": "string"
                }
            ],
            "name": "CallbackFlagSet",
            "type": "event"
        },
        {
            "anonymous": false,
            "inputs": [
                {
                    "indexed": false,
                    "internalType": "string",
                    "name": "step",
                    "type": "string"
                },
                {
                    "indexed": false,
                    "internalType": "string",
                    "name": "betId",
                    "type": "string"
                }
            ],
            "name": "DebugCallbackStep",
            "type": "event"
        },
        {
            "anonymous": false,
            "inputs": [
                {
                    "indexed": true,
                    "internalType": "address",
                    "name": "to",
                    "type": "address"
                },
                {
                    "indexed": false,
                    "internalType": "uint256",
                    "name": "amount",
                    "type": "uint256"
                }
            ],
            "name": "PlatformFeesWithdrawn",
            "type": "event"
        },
        {
            "anonymous": false,
            "inputs": [
                {
                    "indexed": false,
                    "internalType": "string",
                    "name": "betId",
                    "type": "string"
                },
                {
                    "indexed": false,
                    "internalType": "address",
                    "name": "winner",
                    "type": "address"
                },
                {
                    "indexed": false,
                    "internalType": "uint256",
                    "name": "amount",
                    "type": "uint256"
                }
            ],
            "name": "PrizeDistributed",
            "type": "event"
        },
        {
            "anonymous": false,
            "inputs": [
                {
                    "indexed": false,
                    "internalType": "string",
                    "name": "betId",
                    "type": "string"
                },
                {
                    "indexed": false,
                    "internalType": "uint256",
                    "name": "requestId",
                    "type": "uint256"
                }
            ],
            "name": "TallyRevealRequested",
            "type": "event"
        },
        {
            "anonymous": false,
            "inputs": [
                {
                    "indexed": false,
                    "internalType": "string",
                    "name": "betId",
                    "type": "string"
                },
                {
                    "indexed": false,
                    "internalType": "address",
                    "name": "voter",
                    "type": "address"
                },
                {
                    "indexed": false,
                    "internalType": "uint8",
                    "name": "voteType",
                    "type": "uint8"
                },
                {
                    "indexed": false,
                    "internalType": "uint256",
                    "name": "amount",
                    "type": "uint256"
                }
            ],
            "name": "VoteCast",
            "type": "event"
        },
        {
            "anonymous": false,
            "inputs": [
                {
                    "indexed": true,
                    "internalType": "address",
                    "name": "user",
                    "type": "address"
                },
                {
                    "indexed": false,
                    "internalType": "uint256",
                    "name": "amount",
                    "type": "uint256"
                }
            ],
            "name": "WithdrawalPending",
            "type": "event"
        },
        {
            "inputs": [],
            "name": "MAX_DURATION",
            "outputs": [
                {
                    "internalType": "uint256",
                    "name": "",
                    "type": "uint256"
                }
            ],
            "stateMutability": "view",
            "type": "function"
        },
        {
            "inputs": [],
            "name": "MIN_DURATION",
            "outputs": [
                {
                    "internalType": "uint256",
                    "name": "",
                    "type": "uint256"
                }
            ],
            "stateMutability": "view",
            "type": "function"
        },
        {
            "inputs": [],
            "name": "MIN_VOTE_STAKE",
            "outputs": [
                {
                    "internalType": "uint256",
                    "name": "",
                    "type": "uint256"
                }
            ],
            "stateMutability": "view",
            "type": "function"
        },
        {
            "inputs": [
                {
                    "internalType": "string",
                    "name": "",
                    "type": "string"
                }
            ],
            "name": "callbackHasBeenCalled",
            "outputs": [
                {
                    "internalType": "bool",
                    "name": "",
                    "type": "bool"
                }
            ],
            "stateMutability": "view",
            "type": "function"
        },
        {
            "inputs": [
                {
                    "internalType": "string",
                    "name": "betId",
                    "type": "string"
                },
                {
                    "internalType": "uint256",
                    "name": "voteStake",
                    "type": "uint256"
                },
                {
                    "internalType": "uint256",
                    "name": "duration",
                    "type": "uint256"
                }
            ],
            "name": "createBet",
            "outputs": [],
            "stateMutability": "payable",
            "type": "function"
        },
        {
            "inputs": [
                {
                    "internalType": "string",
                    "name": "betId",
                    "type": "string"
                },
                {
                    "internalType": "address[]",
                    "name": "winners",
                    "type": "address[]"
                }
            ],
            "name": "distributePrizes",
            "outputs": [],
            "stateMutability": "nonpayable",
            "type": "function"
        },
        {
            "inputs": [
                {
                    "internalType": "string",
                    "name": "betId",
                    "type": "string"
                }
            ],
            "name": "getBet",
            "outputs": [
                {
                    "internalType": "address",
                    "name": "creator",
                    "type": "address"
                },
                {
                    "internalType": "uint256",
                    "name": "platformStake",
                    "type": "uint256"
                },
                {
                    "internalType": "uint256",
                    "name": "voteStake",
                    "type": "uint256"
                },
                {
                    "internalType": "uint256",
                    "name": "expiryTime",
                    "type": "uint256"
                },
                {
                    "internalType": "bool",
                    "name": "isResolved",
                    "type": "bool"
                },
                {
                    "internalType": "uint64",
                    "name": "yesVotes",
                    "type": "uint64"
                },
                {
                    "internalType": "uint64",
                    "name": "noVotes",
                    "type": "uint64"
                },
                {
                    "internalType": "uint256",
                    "name": "prizePool",
                    "type": "uint256"
                },
                {
                    "internalType": "bool",
                    "name": "yesWon",
                    "type": "bool"
                }
            ],
            "stateMutability": "view",
            "type": "function"
        },
        {
            "inputs": [
                {
                    "internalType": "string",
                    "name": "betId",
                    "type": "string"
                }
            ],
            "name": "getDecryptionRequestId",
            "outputs": [
                {
                    "internalType": "uint256",
                    "name": "",
                    "type": "uint256"
                }
            ],
            "stateMutability": "view",
            "type": "function"
        },
        {
            "inputs": [
                {
                    "internalType": "string",
                    "name": "betId",
                    "type": "string"
                }
            ],
            "name": "getRevealStatus",
            "outputs": [
                {
                    "internalType": "bool",
                    "name": "isResolved",
                    "type": "bool"
                },
                {
                    "internalType": "uint64",
                    "name": "revealedYes",
                    "type": "uint64"
                },
                {
                    "internalType": "uint64",
                    "name": "revealedNo",
                    "type": "uint64"
                },
                {
                    "internalType": "uint256",
                    "name": "decryptionRequestId",
                    "type": "uint256"
                }
            ],
            "stateMutability": "view",
            "type": "function"
        },
        {
            "inputs": [
                {
                    "internalType": "string",
                    "name": "",
                    "type": "string"
                },
                {
                    "internalType": "address",
                    "name": "",
                    "type": "address"
                }
            ],
            "name": "hasVoted",
            "outputs": [
                {
                    "internalType": "bool",
                    "name": "",
                    "type": "bool"
                }
            ],
            "stateMutability": "view",
            "type": "function"
        },
        {
            "inputs": [
                {
                    "internalType": "string",
                    "name": "betId",
                    "type": "string"
                }
            ],
            "name": "isCallbackCalled",
            "outputs": [
                {
                    "internalType": "bool",
                    "name": "",
                    "type": "bool"
                }
            ],
            "stateMutability": "view",
            "type": "function"
        },
        {
            "inputs": [
                {
                    "internalType": "string",
                    "name": "betId",
                    "type": "string"
                }
            ],
            "name": "isRevealRequested",
            "outputs": [
                {
                    "internalType": "bool",
                    "name": "",
                    "type": "bool"
                }
            ],
            "stateMutability": "view",
            "type": "function"
        },
        {
            "inputs": [],
            "name": "owner",
            "outputs": [
                {
                    "internalType": "address",
                    "name": "",
                    "type": "address"
                }
            ],
            "stateMutability": "view",
            "type": "function"
        },
        {
            "inputs": [
                {
                    "internalType": "address",
                    "name": "",
                    "type": "address"
                }
            ],
            "name": "pendingWithdrawals",
            "outputs": [
                {
                    "internalType": "uint256",
                    "name": "",
                    "type": "uint256"
                }
            ],
            "stateMutability": "view",
            "type": "function"
        },
        {
            "inputs": [],
            "name": "platformFees",
            "outputs": [
                {
                    "internalType": "uint256",
                    "name": "",
                    "type": "uint256"
                }
            ],
            "stateMutability": "view",
            "type": "function"
        },
        {
            "inputs": [],
            "name": "platformStake",
            "outputs": [
                {
                    "internalType": "uint256",
                    "name": "",
                    "type": "uint256"
                }
            ],
            "stateMutability": "view",
            "type": "function"
        },
        {
            "inputs": [
                {
                    "internalType": "string",
                    "name": "betId",
                    "type": "string"
                }
            ],
            "name": "requestTallyReveal",
            "outputs": [],
            "stateMutability": "nonpayable",
            "type": "function"
        },
        {
            "inputs": [
                {
                    "internalType": "uint256",
                    "name": "requestId",
                    "type": "uint256"
                },
                {
                    "internalType": "uint64",
                    "name": "revealedYes",
                    "type": "uint64"
                },
                {
                    "internalType": "uint64",
                    "name": "revealedNo",
                    "type": "uint64"
                },
                {
                    "internalType": "bytes[]",
                    "name": "signatures",
                    "type": "bytes[]"
                }
            ],
            "name": "resolveTallyCallback",
            "outputs": [],
            "stateMutability": "nonpayable",
            "type": "function"
        },
        {
            "inputs": [
                {
                    "internalType": "uint256",
                    "name": "newStake",
                    "type": "uint256"
                }
            ],
            "name": "setPlatformStake",
            "outputs": [],
            "stateMutability": "nonpayable",
            "type": "function"
        },
        {
            "inputs": [
                {
                    "internalType": "string",
                    "name": "betId",
                    "type": "string"
                },
                {
                    "internalType": "externalEuint64",
                    "name": "encryptedWeight",
                    "type": "bytes32"
                },
                {
                    "internalType": "uint8",
                    "name": "voteType",
                    "type": "uint8"
                },
                {
                    "internalType": "bytes",
                    "name": "inputProof",
                    "type": "bytes"
                }
            ],
            "name": "vote",
            "outputs": [],
            "stateMutability": "payable",
            "type": "function"
        },
        {
            "inputs": [],
            "name": "withdraw",
            "outputs": [],
            "stateMutability": "nonpayable",
            "type": "function"
        },
        {
            "inputs": [
                {
                    "internalType": "address",
                    "name": "to",
                    "type": "address"
                }
            ],
            "name": "withdrawPlatformFees",
            "outputs": [],
            "stateMutability": "nonpayable",
            "type": "function"
        },
        {
            "stateMutability": "payable",
            "type": "receive"
        }
    ],
    "bytecode": "0x608060405266470de4df8200005f55348015610019575f80fd5b506101946100b8604080516080810182525f808252602082018190529181018290526060810191909152506040805160808101825273687820221192c5b662b25367f70076a37bc79b6c815273848b0066793bcc60346da1f49049357399b8d5956020820152731364cbbf2cdf5032c47d8226a6f6fbd2afcdacac9181019190915273bc91f3dad1a5f19f8390c400196e58073b6a0bc4606082015290565b80517fed8d60e34876f751cc8b014c560745351147d9de11b9347c854e881b128ea60080546001600160a01b03199081166001600160a01b039384161790915560208301517fed8d60e34876f751cc8b014c560745351147d9de11b9347c854e881b128ea6018054831691841691909117905560408301517fed8d60e34876f751cc8b014c560745351147d9de11b9347c854e881b128ea6028054831691841691909117905560608301517fed8d60e34876f751cc8b014c560745351147d9de11b9347c854e881b128ea6038054909216921691909117905550565b7f5ea69329017273582817d320489fbd94f775580e90c092699ca6f3d12fdf7d0080546001600160a01b03191673a02cda4ca3a71d7c46997716f4283aa851c28812179055600780546001600160a01b03191633179055612808806101f85f395ff3fe608060405260043610610170575f3560e01c80639af06cd9116100c6578063d498e4281161007c578063ec3889b511610057578063ec3889b51461048a578063ecb4825a146104a9578063f3f43703146104c8575f80fd5b8063d498e4281461041d578063e31f1c781461043c578063e778fda114610476575f80fd5b8063b1724b46116100ac578063b1724b46146103d3578063b6a6d177146103e9578063c3c84ef0146103fe575f80fd5b80639af06cd9146103775780639ec57d55146103c0575f80fd5b806326190b03116101265780638da5cb5b116101015780638da5cb5b1461031357806395beeae81461034a5780639744aba514610364575f80fd5b806326190b031461027e5780633ccfd60b146102d0578063471a2087146102e4575f80fd5b80630f2eef40116101565780630f2eef401461021d578063194a4e7e1461023c5780632008c5d01461025f575f80fd5b806306caf8901461017b578063078d16001461019c575f80fd5b3661017757005b5f80fd5b348015610186575f80fd5b5061019a610195366004611f65565b6104f3565b005b3480156101a7575f80fd5b506101bb6101b6366004612034565b610591565b604080516001600160a01b03909a168a5260208a0198909852968801959095526060870193909352901515608086015267ffffffffffffffff90811660a08601521660c084015260e08301521515610100820152610120015b60405180910390f35b348015610228575f80fd5b5061019a610237366004612066565b610665565b348015610247575f80fd5b5061025160065481565b604051908152602001610214565b34801561026a575f80fd5b5061019a610279366004612114565b61086f565b348015610289575f80fd5b5061029d610298366004612034565b610af3565b6040516102149493929190931515845267ffffffffffffffff928316602085015291166040830152606082015260800190565b3480156102db575f80fd5b5061019a610b58565b3480156102ef575f80fd5b506103036102fe366004612034565b610c83565b6040519015158152602001610214565b34801561031e575f80fd5b50600754610332906001600160a01b031681565b6040516001600160a01b039091168152602001610214565b348015610355575f80fd5b506102516611c37937e0800081565b61019a61037236600461220f565b610cad565b348015610382575f80fd5b506103036103913660046122d4565b81516020818401810180516002825292820194820194909420919093529091525f908152604090205460ff1681565b61019a6103ce36600461231f565b611019565b3480156103de575f80fd5b5061025162278d0081565b3480156103f4575f80fd5b5061025161012c81565b348015610409575f80fd5b50610251610418366004612034565b611397565b348015610428575f80fd5b50610303610437366004612034565b6113c1565b348015610447575f80fd5b50610303610456366004612034565b805160208183018101805160038252928201919093012091525460ff1681565b348015610481575f80fd5b506102515f5481565b348015610495575f80fd5b5061019a6104a4366004612369565b6113ed565b3480156104b4575f80fd5b5061019a6104c3366004612034565b611566565b3480156104d3575f80fd5b506102516104e2366004612369565b60056020525f908152604090205481565b6007546001600160a01b0316331461053e5760405162461bcd60e51b81526020600482015260096024820152682737ba1037bbb732b960b91b60448201526064015b60405180910390fd5b5f811161058d5760405162461bcd60e51b815260206004820152601f60248201527f506c6174666f726d207374616b65206d75737420626520706f736974697665006044820152606401610535565b5f55565b5f805f805f805f805f8060018b6040516105ab91906123a4565b908152604051908190036020019020805460018201546002830154600384015460048501549495506001600160a01b03909316939192909160ff16806105f1575f610601565b600786015467ffffffffffffffff165b600487015460ff16610613575f61062f565b600787015468010000000000000000900467ffffffffffffffff165b8760080154886009015f9054906101000a900460ff16995099509950995099509950995099509950509193959799909294969850565b5f60018460405161067691906123a4565b908152604051908190036020019020600481015490915060ff166106dc5760405162461bcd60e51b815260206004820152600c60248201527f4e6f74207265736f6c76656400000000000000000000000000000000000000006044820152606401610535565b5f81600801541161072f5760405162461bcd60e51b815260206004820152600d60248201527f4e6f207072697a6520706f6f6c000000000000000000000000000000000000006044820152606401610535565b8161077c5760405162461bcd60e51b815260206004820152600a60248201527f4e6f2077696e6e657273000000000000000000000000000000000000000000006044820152606401610535565b60088101545f9061078e9084906123d3565b90505f5b83811015610861578160055f8787858181106107b0576107b06123f2565b90506020020160208101906107c59190612369565b6001600160a01b03166001600160a01b031681526020019081526020015f205f8282546107f29190612406565b909155507f03fcbbdf8f723f64756f2a8bd13039d673bfda48e348d21bc292b1a5a6b1746e90508686868481811061082c5761082c6123f2565b90506020020160208101906108419190612369565b8460405161085193929190612444565b60405180910390a1600101610792565b50505f600890910155505050565b7f021b932b073918d1fd095189a58715ec4be72577b743b3bc64d2e1c4acbd9f4c6040516108dc9060408082526010908201527f63616c6c6261636b5f656e74657265640000000000000000000000000000000060608201526080602082018190525f9082015260a00190565b60405180910390a15f84815260046020526040812080546108fc90612471565b80601f016020809104026020016040519081016040528092919081815260200182805461092890612471565b80156109735780601f1061094a57610100808354040283529160200191610973565b820191905f5260205f20905b81548152906001019060200180831161095657829003601f168201915b505050505090507f021b932b073918d1fd095189a58715ec4be72577b743b3bc64d2e1c4acbd9f4c816040516109a991906124a9565b60405180910390a15f6001826040516109c291906123a4565b90815260405160209181900391909101812060078101805467ffffffffffffffff8981166fffffffffffffffffffffffffffffffff19909216821768010000000000000000918a169182021790925560048301805460ff19908116600190811790925560098501805494909311931692909217905590925090600390610a499085906123a4565b908152604051908190036020018120805492151560ff19909316929092179091557f2c758f9549f612fba7ab60de7129bdef74c7efdc261a2857e30cea36cd02a5bd90610a979084906124ef565b60405180910390a1600981015460088201546040517fb11d77d06f2736290ba31cc90ed01c25f49d67c77f6679a242143743750aed1592610ae392869260ff909216918a918a91612501565b60405180910390a1505050505050565b5f805f805f600186604051610b0891906123a4565b90815260405190819003602001902060048101546007820154600a9092015460ff909116965067ffffffffffffffff80831696506801000000000000000090920490911693509150509193509193565b335f9081526005602052604090205480610bb45760405162461bcd60e51b815260206004820152601460248201527f4e6f2066756e647320746f2077697468647261770000000000000000000000006044820152606401610535565b335f818152600560205260408082208290555190919083908381818185875af1925050503d805f8114610c02576040519150601f19603f3d011682016040523d82523d5f602084013e610c07565b606091505b5050905080610c4a5760405162461bcd60e51b815260206004820152600f60248201526e15da5d1a191c985dc819985a5b1959608a1b6044820152606401610535565b60405182815233907f31b5a21eaa66e072a85415f32552ffd06f73ac2b42f41a3f31c4e19a5ed87e299060200160405180910390a25050565b5f600382604051610c9491906123a4565b9081526040519081900360200190205460ff1692915050565b5f600186604051610cbe91906123a4565b90815260405190819003602001902080549091506001600160a01b0316610d275760405162461bcd60e51b815260206004820152601160248201527f42657420646f65736e27742065786973740000000000000000000000000000006044820152606401610535565b600481015460ff1615610d7c5760405162461bcd60e51b815260206004820152601460248201527f42657420616c7265616479207265736f6c7665640000000000000000000000006044820152606401610535565b80600301544210610dcf5760405162461bcd60e51b815260206004820152600b60248201527f42657420657870697265640000000000000000000000000000000000000000006044820152606401610535565b80600201543414610e225760405162461bcd60e51b815260206004820152601460248201527f496e636f727265637420766f7465207374616b650000000000000000000000006044820152606401610535565b600286604051610e3291906123a4565b9081526040805160209281900383019020335f908152925290205460ff1615610e9d5760405162461bcd60e51b815260206004820152600d60248201527f416c726561647920766f746564000000000000000000000000000000000000006044820152606401610535565b5f610edd8685858080601f0160208091040260200160405190810160405280939291908181526020018383808284375f920191909152506117ba92505050565b90505f610ee95f6117d0565b90505f610f0a610efb8860ff166117d0565b610f0560016117d0565b6117e6565b90505f610f25610f1c8960ff166117d0565b610f055f6117d0565b9050610f3f8560050154610f3a848787611814565b61182a565b60058601556006850154610f5890610f3a838787611814565b60068601556005850154610f6b90611858565b50610f798560060154611858565b50600160028b604051610f8c91906123a4565b9081526040805160209281900383019020335f90815292528120805460ff191692151592909217909155600886018054349290610fca908490612406565b90915550506040517f5ad4a90df2935a8f6f202e164b48c4145300cc51481cc2459383a9d666522c9a90611005908c9033908c90349061253f565b60405180910390a150505050505050505050565b5f5434146110755760405162461bcd60e51b815260206004820152602360248201527f4d757374207374616b65207468652063757272656e7420706c6174666f726d2060448201526266656560e81b6064820152608401610535565b3460065f8282546110869190612406565b90915550506611c37937e080008210156110e25760405162461bcd60e51b815260206004820152601260248201527f566f7465207374616b6520746f6f206c6f7700000000000000000000000000006044820152606401610535565b61012c81101580156110f7575062278d008111155b6111435760405162461bcd60e51b815260206004820152601060248201527f496e76616c6964206475726174696f6e000000000000000000000000000000006044820152606401610535565b5f6001600160a01b031660018460405161115d91906123a4565b908152604051908190036020019020546001600160a01b0316146111c35760405162461bcd60e51b815260206004820152601260248201527f42657420616c72656164792065786973747300000000000000000000000000006044820152606401610535565b6040805161018081018252338152346020820152908101839052606081016111eb8342612406565b81526020015f151581526020016112015f6117d0565b815260200161120f5f6117d0565b81525f602082018190526040808301829052606083018290526080830182905260a090920152516001906112449086906123a4565b90815260408051918290036020908101909220835181546001600160a01b039091167fffffffffffffffffffffffff0000000000000000000000000000000000000000909116178155918301516001830155820151600282015560608201516003820155608082015160048201805491151560ff1992831617905560a0830151600583015560c0830151600683015560e083015160078301805461010086015167ffffffffffffffff90811668010000000000000000026fffffffffffffffffffffffffffffffff1990921693169290921791909117905561012083015160088301556101408301516009830180549115159190921617905561016090910151600a909101557f396a008d39661f5517b6b9448ced32a2aba87a71b9e8f6f1ceda72188ebb5b49833334856113798642612406565b60405161138a959493929190612579565b60405180910390a1505050565b5f6001826040516113a891906123a4565b9081526020016040518091039020600a01549050919050565b5f6001826040516113d291906123a4565b908152604051908190036020019020600a0154151592915050565b6007546001600160a01b031633146114335760405162461bcd60e51b81526020600482015260096024820152682737ba1037bbb732b960b91b6044820152606401610535565b5f600654116114845760405162461bcd60e51b815260206004820152601360248201527f4e6f206665657320746f207769746864726177000000000000000000000000006044820152606401610535565b600680545f918290556040519091906001600160a01b0384169083908381818185875af1925050503d805f81146114d6576040519150601f19603f3d011682016040523d82523d5f602084013e6114db565b606091505b505090508061151e5760405162461bcd60e51b815260206004820152600f60248201526e15da5d1a191c985dc819985a5b1959608a1b6044820152606401610535565b826001600160a01b03167ffc7ad544ff6a06d6499925723d25b6fe70457a42939995b1d3d6f560fe3363338360405161155991815260200190565b60405180910390a2505050565b5f60018260405161157791906123a4565b90815260405190819003602001902080549091506001600160a01b03166115e05760405162461bcd60e51b815260206004820152601160248201527f42657420646f65736e27742065786973740000000000000000000000000000006044820152606401610535565b80600301544210156116345760405162461bcd60e51b815260206004820152600f60248201527f426574206e6f74206578706972656400000000000000000000000000000000006044820152606401610535565b600481015460ff16156116895760405162461bcd60e51b815260206004820152601060248201527f416c7265616479207265736f6c766564000000000000000000000000000000006044820152606401610535565b80546001600160a01b031633146116e25760405162461bcd60e51b815260206004820152601f60248201527f4f6e6c792063726561746f722063616e20726571756573742072657665616c006044820152606401610535565b6040805160028082526060820183525f926020830190803683375050506005830154909150815f81518110611719576117196123f2565b602090810291909101015260068201548160018151811061173c5761173c6123f2565b60209081029190910101525f611759826302008c5d60e41b611867565b600a84018190555f81815260046020526040902090915061177a8582612604565b507f3e6215a6831a3ef5273364ce91fb108c47eba89cc6526039eb3bea058753208884826040516117ac9291906126c4565b60405180910390a150505050565b5f6117c783836005611873565b90505b92915050565b5f6117ca8267ffffffffffffffff166005611993565b5f826117f8576117f55f6117d0565b92505b81611809576118065f6117d0565b91505b6117c783835f611a50565b5f611820848484611b4b565b90505b9392505050565b5f8261183c576118395f6117d0565b92505b8161184d5761184a5f6117d0565b91505b6117c783835f611bf4565b5f6118638230611ca9565b5090565b5f6117c783835f611d32565b7fed8d60e34876f751cc8b014c560745351147d9de11b9347c854e881b128ea6015460405163196d0b9b60e01b81525f917fed8d60e34876f751cc8b014c560745351147d9de11b9347c854e881b128ea600916001600160a01b039091169063196d0b9b906118ec908890339089908990600401612705565b6020604051808303815f875af1158015611908573d5f803e3d5ffd5b505050506040513d601f19601f8201168201806040525081019061192c919061273b565b8154604051630f8e573b60e21b8152600481018390523360248201529193506001600160a01b031690633e395cec906044015f604051808303815f87803b158015611975575f80fd5b505af1158015611987573d5f803e3d5ffd5b50505050509392505050565b7fed8d60e34876f751cc8b014c560745351147d9de11b9347c854e881b128ea60154604051639cd07acb60e01b81525f917fed8d60e34876f751cc8b014c560745351147d9de11b9347c854e881b128ea600916001600160a01b0390911690639cd07acb90611a089087908790600401612752565b6020604051808303815f875af1158015611a24573d5f803e3d5ffd5b505050506040513d601f19601f82011682018060405250810190611a48919061273b565b949350505050565b5f808215611a635750600160f81b611a66565b505f5b7fed8d60e34876f751cc8b014c560745351147d9de11b9347c854e881b128ea6015460405163f77f3f1d60e01b815260048101879052602481018690527fff00000000000000000000000000000000000000000000000000000000000000831660448201527fed8d60e34876f751cc8b014c560745351147d9de11b9347c854e881b128ea600916001600160a01b03169063f77f3f1d906064015b6020604051808303815f875af1158015611b1d573d5f803e3d5ffd5b505050506040513d601f19601f82011682018060405250810190611b41919061273b565b9695505050505050565b5f807fed8d60e34876f751cc8b014c560745351147d9de11b9347c854e881b128ea6006001810154604051637702dcff60e01b81526004810188905260248101879052604481018690529192506001600160a01b031690637702dcff906064016020604051808303815f875af1158015611bc7573d5f803e3d5ffd5b505050506040513d601f19601f82011682018060405250810190611beb919061273b565b95945050505050565b5f808215611c075750600160f81b611c0a565b505f5b7fed8d60e34876f751cc8b014c560745351147d9de11b9347c854e881b128ea6015460405163022f65e760e31b815260048101879052602481018690527fff00000000000000000000000000000000000000000000000000000000000000831660448201527fed8d60e34876f751cc8b014c560745351147d9de11b9347c854e881b128ea600916001600160a01b03169063117b2f3890606401611b01565b5f7fed8d60e34876f751cc8b014c560745351147d9de11b9347c854e881b128ea6008054604051635ca4b5b160e11b8152600481018690526001600160a01b03858116602483015292935091169063b9496b62906044015f604051808303815f87803b158015611d17575f80fd5b505af1158015611d29573d5f803e3d5ffd5b50505050505050565b7f5ea69329017273582817d320489fbd94f775580e90c092699ca6f3d12fdf7d01547fed8d60e34876f751cc8b014c560745351147d9de11b9347c854e881b128ea6008054604051637d6e912360e11b81527f5ea69329017273582817d320489fbd94f775580e90c092699ca6f3d12fdf7d0092916001600160a01b03169063fadd224690611dc59089906004016127a0565b5f604051808303815f87803b158015611ddc575f80fd5b505af1158015611dee573d5f803e3d5ffd5b50508354604051633263b83b60e01b81526001600160a01b039091169250633263b83b91508690611e279087908b908b906004016127b2565b5f604051808303818588803b158015611e3e575f80fd5b505af1158015611e50573d5f803e3d5ffd5b5050505050611e5f8387611e7e565b600182018054905f611e70836127e3565b919050555050509392505050565b5f8281527f5ea69329017273582817d320489fbd94f775580e90c092699ca6f3d12fdf7d0260205260409020547f5ea69329017273582817d320489fbd94f775580e90c092699ca6f3d12fdf7d009015611eeb57604051633f06d22b60e01b815260040160405180910390fd5b5f83815260028201602090815260409091208351611f0b92850190611f11565b50505050565b828054828255905f5260205f20908101928215611f4a579160200282015b82811115611f4a578251825591602001919060010190611f2f565b506118639291505b80821115611863575f8155600101611f52565b5f60208284031215611f75575f80fd5b5035919050565b634e487b7160e01b5f52604160045260245ffd5b604051601f8201601f1916810167ffffffffffffffff81118282101715611fb957611fb9611f7c565b604052919050565b5f67ffffffffffffffff831115611fda57611fda611f7c565b611fed601f8401601f1916602001611f90565b9050828152838383011115612000575f80fd5b828260208301375f602084830101529392505050565b5f82601f830112612025575f80fd5b6117c783833560208501611fc1565b5f60208284031215612044575f80fd5b813567ffffffffffffffff81111561205a575f80fd5b611a4884828501612016565b5f805f60408486031215612078575f80fd5b833567ffffffffffffffff8082111561208f575f80fd5b61209b87838801612016565b945060208601359150808211156120b0575f80fd5b818601915086601f8301126120c3575f80fd5b8135818111156120d1575f80fd5b8760208260051b85010111156120e5575f80fd5b6020830194508093505050509250925092565b803567ffffffffffffffff8116811461210f575f80fd5b919050565b5f805f8060808587031215612127575f80fd5b8435935060206121388187016120f8565b93506040612148604088016120f8565b9350606087013567ffffffffffffffff80821115612164575f80fd5b818901915089601f830112612177575f80fd5b81358181111561218957612189611f7c565b8060051b612198868201611f90565b918252838101860191868101908d8411156121b1575f80fd5b87860192505b838310156121fd578235858111156121cd575f80fd5b8601603f81018f136121dd575f80fd5b6121ed8f8a8301358a8401611fc1565b83525091870191908701906121b7565b9a9d999c50979a505050505050505050565b5f805f805f60808688031215612223575f80fd5b853567ffffffffffffffff8082111561223a575f80fd5b61224689838a01612016565b9650602088013595506040880135915060ff82168214612264575f80fd5b90935060608701359080821115612279575f80fd5b818801915088601f83011261228c575f80fd5b81358181111561229a575f80fd5b8960208285010111156122ab575f80fd5b9699959850939650602001949392505050565b80356001600160a01b038116811461210f575f80fd5b5f80604083850312156122e5575f80fd5b823567ffffffffffffffff8111156122fb575f80fd5b61230785828601612016565b925050612316602084016122be565b90509250929050565b5f805f60608486031215612331575f80fd5b833567ffffffffffffffff811115612347575f80fd5b61235386828701612016565b9660208601359650604090950135949350505050565b5f60208284031215612379575f80fd5b6117c7826122be565b5f5b8381101561239c578181015183820152602001612384565b50505f910152565b5f82516123b5818460208701612382565b9190910192915050565b634e487b7160e01b5f52601160045260245ffd5b5f826123ed57634e487b7160e01b5f52601260045260245ffd5b500490565b634e487b7160e01b5f52603260045260245ffd5b808201808211156117ca576117ca6123bf565b5f8151808452612430816020860160208601612382565b601f01601f19169290920160200192915050565b606081525f6124566060830186612419565b6001600160a01b039490941660208301525060400152919050565b600181811c9082168061248557607f821691505b6020821081036124a357634e487b7160e01b5f52602260045260245ffd5b50919050565b60408152600960408201527f6265745f666f756e6400000000000000000000000000000000000000000000006060820152608060208201525f6117c76080830184612419565b602081525f6117c76020830184612419565b60a081525f61251360a0830188612419565b95151560208301525067ffffffffffffffff938416604082015291909216606082015260800152919050565b608081525f6125516080830187612419565b6001600160a01b039590951660208301525060ff929092166040830152606090910152919050565b60a081525f61258b60a0830188612419565b90506001600160a01b03861660208301528460408301528360608301528260808301529695505050505050565b601f8211156125ff57805f5260205f20601f840160051c810160208510156125dd5750805b601f840160051c820191505b818110156125fc575f81556001016125e9565b50505b505050565b815167ffffffffffffffff81111561261e5761261e611f7c565b6126328161262c8454612471565b846125b8565b602080601f831160018114612665575f841561264e5750858301515b5f19600386901b1c1916600185901b1785556126bc565b5f85815260208120601f198616915b8281101561269357888601518255948401946001909101908401612674565b50858210156126b057878501515f19600388901b60f8161c191681555b505060018460011b0185555b505050505050565b604081525f6126d66040830185612419565b90508260208301529392505050565b6054811061270157634e487b7160e01b5f52602160045260245ffd5b9052565b8481526001600160a01b0384166020820152608060408201525f61272c6080830185612419565b9050611beb60608301846126e5565b5f6020828403121561274b575f80fd5b5051919050565b8281526040810161182360208301846126e5565b5f815180845260208085019450602084015f5b8381101561279557815187529582019590820190600101612779565b509495945050505050565b602081525f6117c76020830184612766565b838152606060208201525f6127ca6060830185612766565b905063ffffffff60e01b83166040830152949350505050565b5f600182016127f4576127f46123bf565b506001019056fea164736f6c6343000818000a",
    "linkReferences": {},
    "deployedLinkReferences": {}
}