{
    "_format": "hh-sol-artifact-1",
    "contractName": "BeliefMarketFHE",
    "sourceName": "contracts/BeliefMarketFHE.sol",
    "abi": [
        {
            "inputs": [],
            "stateMutability": "nonpayable",
            "type": "constructor"
        },
        {
            "inputs": [],
            "name": "HandlesAlreadySavedForRequestID",
            "type": "error"
        },
        {
            "anonymous": false,
            "inputs": [
                {
                    "indexed": false,
                    "internalType": "string",
                    "name": "betId",
                    "type": "string"
                },
                {
                    "indexed": false,
                    "internalType": "address",
                    "name": "creator",
                    "type": "address"
                },
                {
                    "indexed": false,
                    "internalType": "uint256",
                    "name": "stakeAmount",
                    "type": "uint256"
                },
                {
                    "indexed": false,
                    "internalType": "uint256",
                    "name": "voteStake",
                    "type": "uint256"
                },
                {
                    "indexed": false,
                    "internalType": "uint256",
                    "name": "expiryTime",
                    "type": "uint256"
                }
            ],
            "name": "BetCreated",
            "type": "event"
        },
        {
            "anonymous": false,
            "inputs": [
                {
                    "indexed": false,
                    "internalType": "string",
                    "name": "betId",
                    "type": "string"
                },
                {
                    "indexed": false,
                    "internalType": "bool",
                    "name": "yesWon",
                    "type": "bool"
                },
                {
                    "indexed": false,
                    "internalType": "uint64",
                    "name": "revealedYes",
                    "type": "uint64"
                },
                {
                    "indexed": false,
                    "internalType": "uint64",
                    "name": "revealedNo",
                    "type": "uint64"
                },
                {
                    "indexed": false,
                    "internalType": "uint256",
                    "name": "totalPrize",
                    "type": "uint256"
                }
            ],
            "name": "BetResolved",
            "type": "event"
        },
        {
            "anonymous": false,
            "inputs": [
                {
                    "indexed": false,
                    "internalType": "string",
                    "name": "betId",
                    "type": "string"
                }
            ],
            "name": "CallbackFlagSet",
            "type": "event"
        },
        {
            "anonymous": false,
            "inputs": [
                {
                    "indexed": false,
                    "internalType": "string",
                    "name": "step",
                    "type": "string"
                },
                {
                    "indexed": false,
                    "internalType": "string",
                    "name": "betId",
                    "type": "string"
                }
            ],
            "name": "DebugCallbackStep",
            "type": "event"
        },
        {
            "anonymous": false,
            "inputs": [
                {
                    "indexed": true,
                    "internalType": "address",
                    "name": "to",
                    "type": "address"
                },
                {
                    "indexed": false,
                    "internalType": "uint256",
                    "name": "amount",
                    "type": "uint256"
                }
            ],
            "name": "PlatformFeesWithdrawn",
            "type": "event"
        },
        {
            "anonymous": false,
            "inputs": [
                {
                    "indexed": false,
                    "internalType": "string",
                    "name": "betId",
                    "type": "string"
                },
                {
                    "indexed": false,
                    "internalType": "address",
                    "name": "winner",
                    "type": "address"
                },
                {
                    "indexed": false,
                    "internalType": "uint256",
                    "name": "amount",
                    "type": "uint256"
                }
            ],
            "name": "PrizeDistributed",
            "type": "event"
        },
        {
            "anonymous": false,
            "inputs": [
                {
                    "indexed": false,
                    "internalType": "string",
                    "name": "betId",
                    "type": "string"
                },
                {
                    "indexed": false,
                    "internalType": "uint256",
                    "name": "requestId",
                    "type": "uint256"
                }
            ],
            "name": "TallyRevealRequested",
            "type": "event"
        },
        {
            "anonymous": false,
            "inputs": [
                {
                    "indexed": false,
                    "internalType": "string",
                    "name": "betId",
                    "type": "string"
                }
            ],
            "name": "VoteCast",
            "type": "event"
        },
        {
            "anonymous": false,
            "inputs": [
                {
                    "indexed": true,
                    "internalType": "address",
                    "name": "user",
                    "type": "address"
                },
                {
                    "indexed": false,
                    "internalType": "uint256",
                    "name": "amount",
                    "type": "uint256"
                }
            ],
            "name": "WithdrawalPending",
            "type": "event"
        },
        {
            "inputs": [],
            "name": "MAX_DURATION",
            "outputs": [
                {
                    "internalType": "uint256",
                    "name": "",
                    "type": "uint256"
                }
            ],
            "stateMutability": "view",
            "type": "function"
        },
        {
            "inputs": [],
            "name": "MIN_DURATION",
            "outputs": [
                {
                    "internalType": "uint256",
                    "name": "",
                    "type": "uint256"
                }
            ],
            "stateMutability": "view",
            "type": "function"
        },
        {
            "inputs": [],
            "name": "MIN_VOTE_STAKE",
            "outputs": [
                {
                    "internalType": "uint256",
                    "name": "",
                    "type": "uint256"
                }
            ],
            "stateMutability": "view",
            "type": "function"
        },
        {
            "inputs": [
                {
                    "internalType": "string",
                    "name": "",
                    "type": "string"
                }
            ],
            "name": "callbackHasBeenCalled",
            "outputs": [
                {
                    "internalType": "bool",
                    "name": "",
                    "type": "bool"
                }
            ],
            "stateMutability": "view",
            "type": "function"
        },
        {
            "inputs": [
                {
                    "internalType": "string",
                    "name": "betId",
                    "type": "string"
                }
            ],
            "name": "claimPrize",
            "outputs": [],
            "stateMutability": "nonpayable",
            "type": "function"
        },
        {
            "inputs": [
                {
                    "internalType": "string",
                    "name": "betId",
                    "type": "string"
                }
            ],
            "name": "claimRefund",
            "outputs": [],
            "stateMutability": "nonpayable",
            "type": "function"
        },
        {
            "inputs": [
                {
                    "internalType": "string",
                    "name": "betId",
                    "type": "string"
                },
                {
                    "internalType": "uint256",
                    "name": "voteStake",
                    "type": "uint256"
                },
                {
                    "internalType": "uint256",
                    "name": "duration",
                    "type": "uint256"
                }
            ],
            "name": "createBet",
            "outputs": [],
            "stateMutability": "payable",
            "type": "function"
        },
        {
            "inputs": [
                {
                    "internalType": "string",
                    "name": "betId",
                    "type": "string"
                }
            ],
            "name": "getBet",
            "outputs": [
                {
                    "internalType": "address",
                    "name": "creator",
                    "type": "address"
                },
                {
                    "internalType": "uint256",
                    "name": "platformStake",
                    "type": "uint256"
                },
                {
                    "internalType": "uint256",
                    "name": "voteStake",
                    "type": "uint256"
                },
                {
                    "internalType": "uint256",
                    "name": "expiryTime",
                    "type": "uint256"
                },
                {
                    "internalType": "bool",
                    "name": "isResolved",
                    "type": "bool"
                },
                {
                    "internalType": "uint64",
                    "name": "yesVotes",
                    "type": "uint64"
                },
                {
                    "internalType": "uint64",
                    "name": "noVotes",
                    "type": "uint64"
                },
                {
                    "internalType": "uint256",
                    "name": "prizePool",
                    "type": "uint256"
                },
                {
                    "internalType": "bool",
                    "name": "yesWon",
                    "type": "bool"
                }
            ],
            "stateMutability": "view",
            "type": "function"
        },
        {
            "inputs": [
                {
                    "internalType": "string",
                    "name": "betId",
                    "type": "string"
                }
            ],
            "name": "getDecryptionRequestId",
            "outputs": [
                {
                    "internalType": "uint256",
                    "name": "",
                    "type": "uint256"
                }
            ],
            "stateMutability": "view",
            "type": "function"
        },
        {
            "inputs": [
                {
                    "internalType": "string",
                    "name": "betId",
                    "type": "string"
                }
            ],
            "name": "getRevealStatus",
            "outputs": [
                {
                    "internalType": "bool",
                    "name": "isResolved",
                    "type": "bool"
                },
                {
                    "internalType": "uint64",
                    "name": "revealedYes",
                    "type": "uint64"
                },
                {
                    "internalType": "uint64",
                    "name": "revealedNo",
                    "type": "uint64"
                },
                {
                    "internalType": "uint256",
                    "name": "decryptionRequestId",
                    "type": "uint256"
                }
            ],
            "stateMutability": "view",
            "type": "function"
        },
        {
            "inputs": [
                {
                    "internalType": "string",
                    "name": "betId",
                    "type": "string"
                },
                {
                    "internalType": "address",
                    "name": "user",
                    "type": "address"
                }
            ],
            "name": "hasUserClaimed",
            "outputs": [
                {
                    "internalType": "bool",
                    "name": "",
                    "type": "bool"
                }
            ],
            "stateMutability": "view",
            "type": "function"
        },
        {
            "inputs": [
                {
                    "internalType": "string",
                    "name": "",
                    "type": "string"
                },
                {
                    "internalType": "address",
                    "name": "",
                    "type": "address"
                }
            ],
            "name": "hasVoted",
            "outputs": [
                {
                    "internalType": "bool",
                    "name": "",
                    "type": "bool"
                }
            ],
            "stateMutability": "view",
            "type": "function"
        },
        {
            "inputs": [
                {
                    "internalType": "string",
                    "name": "betId",
                    "type": "string"
                }
            ],
            "name": "isCallbackCalled",
            "outputs": [
                {
                    "internalType": "bool",
                    "name": "",
                    "type": "bool"
                }
            ],
            "stateMutability": "view",
            "type": "function"
        },
        {
            "inputs": [
                {
                    "internalType": "string",
                    "name": "betId",
                    "type": "string"
                }
            ],
            "name": "isRevealRequested",
            "outputs": [
                {
                    "internalType": "bool",
                    "name": "",
                    "type": "bool"
                }
            ],
            "stateMutability": "view",
            "type": "function"
        },
        {
            "inputs": [],
            "name": "owner",
            "outputs": [
                {
                    "internalType": "address",
                    "name": "",
                    "type": "address"
                }
            ],
            "stateMutability": "view",
            "type": "function"
        },
        {
            "inputs": [],
            "name": "platformFees",
            "outputs": [
                {
                    "internalType": "uint256",
                    "name": "",
                    "type": "uint256"
                }
            ],
            "stateMutability": "view",
            "type": "function"
        },
        {
            "inputs": [],
            "name": "platformStake",
            "outputs": [
                {
                    "internalType": "uint256",
                    "name": "",
                    "type": "uint256"
                }
            ],
            "stateMutability": "view",
            "type": "function"
        },
        {
            "inputs": [
                {
                    "internalType": "string",
                    "name": "betId",
                    "type": "string"
                }
            ],
            "name": "requestTallyReveal",
            "outputs": [],
            "stateMutability": "nonpayable",
            "type": "function"
        },
        {
            "inputs": [
                {
                    "internalType": "uint256",
                    "name": "requestId",
                    "type": "uint256"
                },
                {
                    "internalType": "uint64",
                    "name": "revealedYes",
                    "type": "uint64"
                },
                {
                    "internalType": "uint64",
                    "name": "revealedNo",
                    "type": "uint64"
                },
                {
                    "internalType": "bytes[]",
                    "name": "signatures",
                    "type": "bytes[]"
                }
            ],
            "name": "resolveTallyCallback",
            "outputs": [],
            "stateMutability": "nonpayable",
            "type": "function"
        },
        {
            "inputs": [
                {
                    "internalType": "uint256",
                    "name": "newStake",
                    "type": "uint256"
                }
            ],
            "name": "setPlatformStake",
            "outputs": [],
            "stateMutability": "nonpayable",
            "type": "function"
        },
        {
            "inputs": [
                {
                    "internalType": "string",
                    "name": "betId",
                    "type": "string"
                },
                {
                    "internalType": "externalEuint64",
                    "name": "encryptedWeight",
                    "type": "bytes32"
                },
                {
                    "internalType": "uint8",
                    "name": "voteType",
                    "type": "uint8"
                },
                {
                    "internalType": "bytes",
                    "name": "inputProof",
                    "type": "bytes"
                }
            ],
            "name": "vote",
            "outputs": [],
            "stateMutability": "payable",
            "type": "function"
        },
        {
            "inputs": [
                {
                    "internalType": "address",
                    "name": "to",
                    "type": "address"
                }
            ],
            "name": "withdrawPlatformFees",
            "outputs": [],
            "stateMutability": "nonpayable",
            "type": "function"
        },
        {
            "stateMutability": "payable",
            "type": "receive"
        }
    ],
    "bytecode": "0x608060405266470de4df8200005f55348015610019575f80fd5b506101946100b8604080516080810182525f808252602082018190529181018290526060810191909152506040805160808101825273687820221192c5b662b25367f70076a37bc79b6c815273848b0066793bcc60346da1f49049357399b8d5956020820152731364cbbf2cdf5032c47d8226a6f6fbd2afcdacac9181019190915273bc91f3dad1a5f19f8390c400196e58073b6a0bc4606082015290565b80517fed8d60e34876f751cc8b014c560745351147d9de11b9347c854e881b128ea60080546001600160a01b03199081166001600160a01b039384161790915560208301517fed8d60e34876f751cc8b014c560745351147d9de11b9347c854e881b128ea6018054831691841691909117905560408301517fed8d60e34876f751cc8b014c560745351147d9de11b9347c854e881b128ea6028054831691841691909117905560608301517fed8d60e34876f751cc8b014c560745351147d9de11b9347c854e881b128ea6038054909216921691909117905550565b7f5ea69329017273582817d320489fbd94f775580e90c092699ca6f3d12fdf7d0080546001600160a01b03191673a02cda4ca3a71d7c46997716f4283aa851c28812179055600680546001600160a01b03191633179055612b49806101f85f395ff3fe608060405260043610610170575f3560e01c80639af06cd9116100c6578063d498e4281161007c578063ec3889b511610057578063ec3889b514610495578063ecb4825a146104b4578063fa73914c146104d3575f80fd5b8063d498e42814610428578063e31f1c7814610447578063e778fda114610481575f80fd5b8063b1724b46116100ac578063b1724b46146103de578063b6a6d177146103f4578063c3c84ef014610409575f80fd5b80639af06cd9146103825780639ec57d55146103cb575f80fd5b806326190b03116101265780638da5cb5b116101015780638da5cb5b1461031e57806395beeae8146103555780639744aba51461036f575f80fd5b806326190b031461028e578063471a2087146102e05780634e8b87fe146102ff575f80fd5b8063194a4e7e11610156578063194a4e7e1461021d5780632008c5d01461024057806323cadfce1461025f575f80fd5b806306caf8901461017b578063078d16001461019c575f80fd5b3661017757005b5f80fd5b348015610186575f80fd5b5061019a61019536600461235b565b6104f2565b005b3480156101a7575f80fd5b506101bb6101b636600461242a565b610590565b604080516001600160a01b03909a168a5260208a0198909852968801959095526060870193909352901515608086015267ffffffffffffffff90811660a08601521660c084015260e08301521515610100820152610120015b60405180910390f35b348015610228575f80fd5b5061023260055481565b604051908152602001610214565b34801561024b575f80fd5b5061019a61025a366004612478565b61065f565b34801561026a575f80fd5b5061027e610279366004612589565b6108de565b6040519015158152602001610214565b348015610299575f80fd5b506102ad6102a836600461242a565b61091f565b6040516102149493929190931515845267ffffffffffffffff928316602085015291166040830152606082015260800190565b3480156102eb575f80fd5b5061027e6102fa36600461242a565b61097f565b34801561030a575f80fd5b5061019a61031936600461242a565b6109a9565b348015610329575f80fd5b5060065461033d906001600160a01b031681565b6040516001600160a01b039091168152602001610214565b348015610360575f80fd5b506102326611c37937e0800081565b61019a61037d3660046125d4565b610c2c565b34801561038d575f80fd5b5061027e61039c366004612589565b81516020818401810180516002825292820194820194909420919093529091525f908152604090205460ff1681565b61019a6103d9366004612683565b610fcf565b3480156103e9575f80fd5b5061023262278d0081565b3480156103ff575f80fd5b5061023261012c81565b348015610414575f80fd5b5061023261042336600461242a565b611348565b348015610433575f80fd5b5061027e61044236600461242a565b611372565b348015610452575f80fd5b5061027e61046136600461242a565b805160208183018101805160038252928201919093012091525460ff1681565b34801561048c575f80fd5b506102325f5481565b3480156104a0575f80fd5b5061019a6104af3660046126cd565b61139e565b3480156104bf575f80fd5b5061019a6104ce36600461242a565b611525565b3480156104de575f80fd5b5061019a6104ed36600461242a565b611779565b6006546001600160a01b0316331461053d5760405162461bcd60e51b81526020600482015260096024820152682737ba1037bbb732b960b91b60448201526064015b60405180910390fd5b5f811161058c5760405162461bcd60e51b815260206004820152601f60248201527f506c6174666f726d207374616b65206d75737420626520706f736974697665006044820152606401610534565b5f55565b5f805f805f805f805f8060018b6040516105aa9190612708565b908152604051908190036020019020805460018201546002830154600384015460048501549495506001600160a01b03909316939192909160ff16806105f0575f610600565b600786015467ffffffffffffffff165b600487015460ff16610612575f610629565b6007870154600160401b900467ffffffffffffffff165b8760080154886009015f9054906101000a900460ff16995099509950995099509950995099509950509193959799909294969850565b7f021b932b073918d1fd095189a58715ec4be72577b743b3bc64d2e1c4acbd9f4c6040516106cc9060408082526010908201527f63616c6c6261636b5f656e74657265640000000000000000000000000000000060608201526080602082018190525f9082015260a00190565b60405180910390a15f84815260046020526040812080546106ec90612723565b80601f016020809104026020016040519081016040528092919081815260200182805461071890612723565b80156107635780601f1061073a57610100808354040283529160200191610763565b820191905f5260205f20905b81548152906001019060200180831161074657829003601f168201915b505050505090507f021b932b073918d1fd095189a58715ec4be72577b743b3bc64d2e1c4acbd9f4c816040516107999190612786565b60405180910390a15f6001826040516107b29190612708565b90815260405160209181900391909101812060078101805467ffffffffffffffff8981166fffffffffffffffffffffffffffffffff199092168217600160401b918a169182021790925560048301805460ff19908116600190811790925560098501805494909311931692909217905590925090600390610834908590612708565b908152604051908190036020018120805492151560ff19909316929092179091557f2c758f9549f612fba7ab60de7129bdef74c7efdc261a2857e30cea36cd02a5bd906108829084906127cc565b60405180910390a1600981015460088201546040517fb11d77d06f2736290ba31cc90ed01c25f49d67c77f6679a242143743750aed15926108ce92869260ff909216918a918a916127de565b60405180910390a1505050505050565b5f6008836040516108ef9190612708565b90815260408051602092819003830190206001600160a01b0385165f908152925290205460ff1690505b92915050565b5f805f805f6001866040516109349190612708565b90815260405190819003602001902060048101546007820154600a9092015460ff909116965067ffffffffffffffff8083169650600160401b90920490911693509150509193509193565b5f6003826040516109909190612708565b9081526040519081900360200190205460ff1692915050565b5f6001826040516109ba9190612708565b908152604051908190036020019020600481015490915060ff16610a135760405162461bcd60e51b815260206004820152601060248201526f10995d081b9bdd081c995cdbdb1d995960821b6044820152606401610534565b600781015467ffffffffffffffff808216600160401b9092041614610a7a5760405162461bcd60e51b815260206004820152600960248201527f4e6f7420612074696500000000000000000000000000000000000000000000006044820152606401610534565b600282604051610a8a9190612708565b9081526040805160209281900383019020335f908152925290205460ff16610ae35760405162461bcd60e51b815260206004820152600c60248201526b446964206e6f7420766f746560a01b6044820152606401610534565b600882604051610af39190612708565b9081526040805160209281900383019020335f908152925290205460ff1615610b505760405162461bcd60e51b815260206004820152600f60248201526e105b1c9958591e4818db185a5b5959608a1b6044820152606401610534565b6001600883604051610b629190612708565b9081526040805160209281900383018120335f81815291909452918220805460ff19169415159490941790935560028401549290919083908381818185875af1925050503d805f8114610bd0576040519150601f19603f3d011682016040523d82523d5f602084013e610bd5565b606091505b5050905080610c265760405162461bcd60e51b815260206004820152601460248201527f4661696c656420746f2073656e642045746865720000000000000000000000006044820152606401610534565b50505050565b5f600186604051610c3d9190612708565b90815260405190819003602001902080549091506001600160a01b0316610ca65760405162461bcd60e51b815260206004820152601160248201527f42657420646f65736e27742065786973740000000000000000000000000000006044820152606401610534565b600481015460ff1615610cfb5760405162461bcd60e51b815260206004820152601460248201527f42657420616c7265616479207265736f6c7665640000000000000000000000006044820152606401610534565b80600301544210610d4e5760405162461bcd60e51b815260206004820152600b60248201527f42657420657870697265640000000000000000000000000000000000000000006044820152606401610534565b80600201543414610da15760405162461bcd60e51b815260206004820152601460248201527f496e636f727265637420766f7465207374616b650000000000000000000000006044820152606401610534565b600286604051610db19190612708565b9081526040805160209281900383019020335f908152925290205460ff1615610e1c5760405162461bcd60e51b815260206004820152600d60248201527f416c726561647920766f746564000000000000000000000000000000000000006044820152606401610534565b5f610e5c8685858080601f0160208091040260200160405190810160405280939291908181526020018383808284375f92019190915250611bc792505050565b90505f610e685f611bdb565b90505f610e89610e7a8860ff16611bdb565b610e846001611bdb565b611bf1565b90505f610ea4610e9b8960ff16611bdb565b610e845f611bdb565b9050610ebe8560050154610eb9848787611c1f565b611c33565b60058601556006850154610ed790610eb9838787611c1f565b60068601556005850154610eea90611c61565b50610ef88560060154611c61565b50600160028b604051610f0b9190612708565b9081526040805160209281900383018120335f90815293529120805460ff1916921515929092179091558890600790610f45908d90612708565b9081526040805160209281900383019020335f90815292528120805460ff191660ff9390931692909217909155600886018054349290610f86908490612830565b90915550506040517fdd4c99251f425e725972ff09e5348689020fce09b3b010f8573d992fe79afcf190610fbb908c906127cc565b60405180910390a150505050505050505050565b5f54341461102b5760405162461bcd60e51b815260206004820152602360248201527f4d757374207374616b65207468652063757272656e7420706c6174666f726d2060448201526266656560e81b6064820152608401610534565b3460055f82825461103c9190612830565b90915550506611c37937e080008210156110985760405162461bcd60e51b815260206004820152601260248201527f566f7465207374616b6520746f6f206c6f7700000000000000000000000000006044820152606401610534565b61012c81101580156110ad575062278d008111155b6110f95760405162461bcd60e51b815260206004820152601060248201527f496e76616c6964206475726174696f6e000000000000000000000000000000006044820152606401610534565b5f6001600160a01b03166001846040516111139190612708565b908152604051908190036020019020546001600160a01b0316146111795760405162461bcd60e51b815260206004820152601260248201527f42657420616c72656164792065786973747300000000000000000000000000006044820152606401610534565b6040805161018081018252338152346020820152908101839052606081016111a18342612830565b81526020015f151581526020016111b75f611bdb565b81526020016111c55f611bdb565b81525f602082018190526040808301829052606083018290526080830182905260a090920152516001906111fa908690612708565b90815260408051918290036020908101909220835181546001600160a01b039091167fffffffffffffffffffffffff0000000000000000000000000000000000000000909116178155918301516001830155820151600282015560608201516003820155608082015160048201805491151560ff1992831617905560a0830151600583015560c0830151600683015560e083015160078301805461010086015167ffffffffffffffff908116600160401b026fffffffffffffffffffffffffffffffff1990921693169290921791909117905561012083015160088301556101408301516009830180549115159190921617905561016090910151600a909101557f396a008d39661f5517b6b9448ced32a2aba87a71b9e8f6f1ceda72188ebb5b498333348561132a8642612830565b60405161133b959493929190612843565b60405180910390a1505050565b5f6001826040516113599190612708565b9081526020016040518091039020600a01549050919050565b5f6001826040516113839190612708565b908152604051908190036020019020600a0154151592915050565b6006546001600160a01b031633146113e45760405162461bcd60e51b81526020600482015260096024820152682737ba1037bbb732b960b91b6044820152606401610534565b5f600554116114355760405162461bcd60e51b815260206004820152601360248201527f4e6f206665657320746f207769746864726177000000000000000000000000006044820152606401610534565b600580545f918290556040519091906001600160a01b0384169083908381818185875af1925050503d805f8114611487576040519150601f19603f3d011682016040523d82523d5f602084013e61148c565b606091505b50509050806114dd5760405162461bcd60e51b815260206004820152600f60248201527f5769746864726177206661696c656400000000000000000000000000000000006044820152606401610534565b826001600160a01b03167ffc7ad544ff6a06d6499925723d25b6fe70457a42939995b1d3d6f560fe3363338360405161151891815260200190565b60405180910390a2505050565b5f6001826040516115369190612708565b90815260405190819003602001902080549091506001600160a01b031661159f5760405162461bcd60e51b815260206004820152601160248201527f42657420646f65736e27742065786973740000000000000000000000000000006044820152606401610534565b80600301544210156115f35760405162461bcd60e51b815260206004820152600f60248201527f426574206e6f74206578706972656400000000000000000000000000000000006044820152606401610534565b600481015460ff16156116485760405162461bcd60e51b815260206004820152601060248201527f416c7265616479207265736f6c766564000000000000000000000000000000006044820152606401610534565b80546001600160a01b031633146116a15760405162461bcd60e51b815260206004820152601f60248201527f4f6e6c792063726561746f722063616e20726571756573742072657665616c006044820152606401610534565b6040805160028082526060820183525f926020830190803683375050506005830154909150815f815181106116d8576116d8612882565b60209081029190910101526006820154816001815181106116fb576116fb612882565b60209081029190910101525f611718826302008c5d60e41b611c70565b600a84018190555f81815260046020526040902090915061173985826128e2565b507f3e6215a6831a3ef5273364ce91fb108c47eba89cc6526039eb3bea0587532088848260405161176b9291906129a2565b60405180910390a150505050565b5f60018260405161178a9190612708565b908152604051908190036020019020600481015490915060ff166117e35760405162461bcd60e51b815260206004820152601060248201526f10995d081b9bdd081c995cdbdb1d995960821b6044820152606401610534565b6008826040516117f39190612708565b9081526040805160209281900383019020335f908152925290205460ff16156118505760405162461bcd60e51b815260206004820152600f60248201526e105b1c9958591e4818db185a5b5959608a1b6044820152606401610534565b6002826040516118609190612708565b9081526040805160209281900383019020335f908152925290205460ff166118b95760405162461bcd60e51b815260206004820152600c60248201526b446964206e6f7420766f746560a01b6044820152606401610534565b600781015467ffffffffffffffff600160401b8204811691160361191f5760405162461bcd60e51b815260206004820152601460248201527f5469652c2075736520636c61696d526566756e640000000000000000000000006044820152606401610534565b60098101545f9060ff16801561196457506007836040516119409190612708565b90815260408051918290036020908101909220335f908152925290205460ff166001145b806119aa5750600982015460ff161580156119aa575060078360405161198a9190612708565b9081526040805160209281900383019020335f908152925290205460ff16155b9050806119f95760405162461bcd60e51b815260206004820152600c60248201527f4e6f7420612077696e6e657200000000000000000000000000000000000000006044820152606401610534565b6001600884604051611a0b9190612708565b9081526040805160209281900383019020335f90815292528120805460ff1916921515929092179091556002830154600984015490919060ff16611a64576007840154600160401b900467ffffffffffffffff16611a74565b600784015467ffffffffffffffff165b67ffffffffffffffff1690505f8111611acf5760405162461bcd60e51b815260206004820152600a60248201527f4e6f2077696e6e657273000000000000000000000000000000000000000000006044820152606401610534565b5f81838660080154611ae191906129c3565b611aeb91906129da565b6040519091505f90339083908381818185875af1925050503d805f8114611b2d576040519150601f19603f3d011682016040523d82523d5f602084013e611b32565b606091505b5050905080611b835760405162461bcd60e51b815260206004820152601460248201527f4661696c656420746f2073656e642045746865720000000000000000000000006044820152606401610534565b7f03fcbbdf8f723f64756f2a8bd13039d673bfda48e348d21bc292b1a5a6b1746e873384604051611bb6939291906129f9565b60405180910390a150505050505050565b5f611bd483836005611c7c565b9392505050565b5f6109198267ffffffffffffffff166005611d9c565b5f82611c0357611c005f611bdb565b92505b81611c1457611c115f611bdb565b91505b611bd483835f611e51565b5f611c2b848484611f4c565b949350505050565b5f82611c4557611c425f611bdb565b92505b81611c5657611c535f611bdb565b91505b611bd483835f611ff5565b5f611c6c82306120aa565b5090565b5f611bd483835f612133565b7fed8d60e34876f751cc8b014c560745351147d9de11b9347c854e881b128ea6015460405163196d0b9b60e01b81525f917fed8d60e34876f751cc8b014c560745351147d9de11b9347c854e881b128ea600916001600160a01b039091169063196d0b9b90611cf5908890339089908990600401612a46565b6020604051808303815f875af1158015611d11573d5f803e3d5ffd5b505050506040513d601f19601f82011682018060405250810190611d359190612a7c565b8154604051630f8e573b60e21b8152600481018390523360248201529193506001600160a01b031690633e395cec906044015f604051808303815f87803b158015611d7e575f80fd5b505af1158015611d90573d5f803e3d5ffd5b50505050509392505050565b7fed8d60e34876f751cc8b014c560745351147d9de11b9347c854e881b128ea60154604051639cd07acb60e01b81525f917fed8d60e34876f751cc8b014c560745351147d9de11b9347c854e881b128ea600916001600160a01b0390911690639cd07acb90611e119087908790600401612a93565b6020604051808303815f875af1158015611e2d573d5f803e3d5ffd5b505050506040513d601f19601f82011682018060405250810190611c2b9190612a7c565b5f808215611e645750600160f81b611e67565b505f5b7fed8d60e34876f751cc8b014c560745351147d9de11b9347c854e881b128ea6015460405163f77f3f1d60e01b815260048101879052602481018690527fff00000000000000000000000000000000000000000000000000000000000000831660448201527fed8d60e34876f751cc8b014c560745351147d9de11b9347c854e881b128ea600916001600160a01b03169063f77f3f1d906064015b6020604051808303815f875af1158015611f1e573d5f803e3d5ffd5b505050506040513d601f19601f82011682018060405250810190611f429190612a7c565b9695505050505050565b5f807fed8d60e34876f751cc8b014c560745351147d9de11b9347c854e881b128ea6006001810154604051637702dcff60e01b81526004810188905260248101879052604481018690529192506001600160a01b031690637702dcff906064016020604051808303815f875af1158015611fc8573d5f803e3d5ffd5b505050506040513d601f19601f82011682018060405250810190611fec9190612a7c565b95945050505050565b5f8082156120085750600160f81b61200b565b505f5b7fed8d60e34876f751cc8b014c560745351147d9de11b9347c854e881b128ea6015460405163022f65e760e31b815260048101879052602481018690527fff00000000000000000000000000000000000000000000000000000000000000831660448201527fed8d60e34876f751cc8b014c560745351147d9de11b9347c854e881b128ea600916001600160a01b03169063117b2f3890606401611f02565b5f7fed8d60e34876f751cc8b014c560745351147d9de11b9347c854e881b128ea6008054604051635ca4b5b160e11b8152600481018690526001600160a01b03858116602483015292935091169063b9496b62906044015f604051808303815f87803b158015612118575f80fd5b505af115801561212a573d5f803e3d5ffd5b50505050505050565b7f5ea69329017273582817d320489fbd94f775580e90c092699ca6f3d12fdf7d01547fed8d60e34876f751cc8b014c560745351147d9de11b9347c854e881b128ea6008054604051637d6e912360e11b81527f5ea69329017273582817d320489fbd94f775580e90c092699ca6f3d12fdf7d0092916001600160a01b03169063fadd2246906121c6908990600401612ae1565b5f604051808303815f87803b1580156121dd575f80fd5b505af11580156121ef573d5f803e3d5ffd5b50508354604051633263b83b60e01b81526001600160a01b039091169250633263b83b915086906122289087908b908b90600401612af3565b5f604051808303818588803b15801561223f575f80fd5b505af1158015612251573d5f803e3d5ffd5b5050505050612260838761227f565b600182018054905f61227183612b24565b919050555050509392505050565b5f8281527f5ea69329017273582817d320489fbd94f775580e90c092699ca6f3d12fdf7d0260205260409020547f5ea69329017273582817d320489fbd94f775580e90c092699ca6f3d12fdf7d0090156122ec57604051633f06d22b60e01b815260040160405180910390fd5b5f83815260028201602090815260409091208351610c2692850190828054828255905f5260205f20908101928215612340579160200282015b82811115612340578251825591602001919060010190612325565b50611c6c9291505b80821115611c6c575f8155600101612348565b5f6020828403121561236b575f80fd5b5035919050565b634e487b7160e01b5f52604160045260245ffd5b604051601f8201601f1916810167ffffffffffffffff811182821017156123af576123af612372565b604052919050565b5f67ffffffffffffffff8311156123d0576123d0612372565b6123e3601f8401601f1916602001612386565b90508281528383830111156123f6575f80fd5b828260208301375f602084830101529392505050565b5f82601f83011261241b575f80fd5b611bd4838335602085016123b7565b5f6020828403121561243a575f80fd5b813567ffffffffffffffff811115612450575f80fd5b611c2b8482850161240c565b803567ffffffffffffffff81168114612473575f80fd5b919050565b5f805f806080858703121561248b575f80fd5b84359350602061249c81870161245c565b935060406124ac6040880161245c565b9350606087013567ffffffffffffffff808211156124c8575f80fd5b818901915089601f8301126124db575f80fd5b8135818111156124ed576124ed612372565b8060051b6124fc868201612386565b918252838101860191868101908d841115612515575f80fd5b87860192505b8383101561256157823585811115612531575f80fd5b8601603f81018f13612541575f80fd5b6125518f8a8301358a84016123b7565b835250918701919087019061251b565b9a9d999c50979a505050505050505050565b80356001600160a01b0381168114612473575f80fd5b5f806040838503121561259a575f80fd5b823567ffffffffffffffff8111156125b0575f80fd5b6125bc8582860161240c565b9250506125cb60208401612573565b90509250929050565b5f805f805f608086880312156125e8575f80fd5b853567ffffffffffffffff808211156125ff575f80fd5b61260b89838a0161240c565b9650602088013595506040880135915060ff82168214612629575f80fd5b9093506060870135908082111561263e575f80fd5b818801915088601f830112612651575f80fd5b81358181111561265f575f80fd5b896020828501011115612670575f80fd5b9699959850939650602001949392505050565b5f805f60608486031215612695575f80fd5b833567ffffffffffffffff8111156126ab575f80fd5b6126b78682870161240c565b9660208601359650604090950135949350505050565b5f602082840312156126dd575f80fd5b611bd482612573565b5f5b838110156127005781810151838201526020016126e8565b50505f910152565b5f82516127198184602087016126e6565b9190910192915050565b600181811c9082168061273757607f821691505b60208210810361275557634e487b7160e01b5f52602260045260245ffd5b50919050565b5f81518084526127728160208601602086016126e6565b601f01601f19169290920160200192915050565b60408152600960408201527f6265745f666f756e6400000000000000000000000000000000000000000000006060820152608060208201525f611bd4608083018461275b565b602081525f611bd4602083018461275b565b60a081525f6127f060a083018861275b565b95151560208301525067ffffffffffffffff938416604082015291909216606082015260800152919050565b634e487b7160e01b5f52601160045260245ffd5b808201808211156109195761091961281c565b60a081525f61285560a083018861275b565b90506001600160a01b03861660208301528460408301528360608301528260808301529695505050505050565b634e487b7160e01b5f52603260045260245ffd5b601f8211156128dd57805f5260205f20601f840160051c810160208510156128bb5750805b601f840160051c820191505b818110156128da575f81556001016128c7565b50505b505050565b815167ffffffffffffffff8111156128fc576128fc612372565b6129108161290a8454612723565b84612896565b602080601f831160018114612943575f841561292c5750858301515b5f19600386901b1c1916600185901b17855561299a565b5f85815260208120601f198616915b8281101561297157888601518255948401946001909101908401612952565b508582101561298e57878501515f19600388901b60f8161c191681555b505060018460011b0185555b505050505050565b604081525f6129b4604083018561275b565b90508260208301529392505050565b80820281158282048414176109195761091961281c565b5f826129f457634e487b7160e01b5f52601260045260245ffd5b500490565b606081525f612a0b606083018661275b565b6001600160a01b039490941660208301525060400152919050565b60548110612a4257634e487b7160e01b5f52602160045260245ffd5b9052565b8481526001600160a01b0384166020820152608060408201525f612a6d608083018561275b565b9050611fec6060830184612a26565b5f60208284031215612a8c575f80fd5b5051919050565b82815260408101611bd46020830184612a26565b5f815180845260208085019450602084015f5b83811015612ad657815187529582019590820190600101612aba565b509495945050505050565b602081525f611bd46020830184612aa7565b838152606060208201525f612b0b6060830185612aa7565b905063ffffffff60e01b83166040830152949350505050565b5f60018201612b3557612b3561281c565b506001019056fea164736f6c6343000818000a",
    "linkReferences": {},
    "deployedLinkReferences": {}
}